{
  "_format": "hh-sol-artifact-1",
  "contractName": "B",
  "sourceName": "contracts/A.sol",
  "abi": [
    {
      "inputs": [
        {
          "internalType": "address",
          "name": "_A",
          "type": "address"
        }
      ],
      "stateMutability": "nonpayable",
      "type": "constructor"
    },
    {
      "inputs": [],
      "name": "getB",
      "outputs": [
        {
          "internalType": "uint256",
          "name": "",
          "type": "uint256"
        }
      ],
      "stateMutability": "view",
      "type": "function"
    },
    {
      "inputs": [
        {
          "internalType": "uint256",
          "name": "_b",
          "type": "uint256"
        }
      ],
      "name": "setB",
      "outputs": [],
      "stateMutability": "nonpayable",
      "type": "function"
    }
  ],
  "bytecode": "0x608060405234801561001057600080fd5b506040516106b23803806106b283398181016040528101906100329190610128565b80600060020160026101000a81548173ffffffffffffffffffffffffffffffffffffffff021916908373ffffffffffffffffffffffffffffffffffffffff16021790555060046000600101819055506045600060020160006101000a81548160ff021916908360ff16021790555060f5600060020160016101000a81548160ff021916908360ff16021790555050610155565b600080fd5b600073ffffffffffffffffffffffffffffffffffffffff82169050919050565b60006100f5826100ca565b9050919050565b610105816100ea565b811461011057600080fd5b50565b600081519050610122816100fc565b92915050565b60006020828403121561013e5761013d6100c5565b5b600061014c84828501610113565b91505092915050565b61054e806101646000396000f3fe608060405234801561001057600080fd5b50600436106100365760003560e01c806309cdcf9b1461003b578063a1c5191514610057575b600080fd5b610055600480360381019061005091906102fa565b610075565b005b61005f6101ee565b60405161006c9190610336565b60405180910390f35b80600060010181905550600080600060020160029054906101000a900473ffffffffffffffffffffffffffffffffffffffff1673ffffffffffffffffffffffffffffffffffffffff166001846100cb9190610380565b6040516024016100db9190610336565b6040516020818303038152906040527fee919d50000000000000000000000000000000000000000000000000000000007bffffffffffffffffffffffffffffffffffffffffffffffffffffffff19166020820180517bffffffffffffffffffffffffffffffffffffffffffffffffffffffff83818316178352505050506040516101659190610450565b600060405180830381855af49150503d80600081146101a0576040519150601f19603f3d011682016040523d82523d6000602084013e6101a5565b606091505b50915091506101e96040518060400160405280600781526020017f7375636365737300000000000000000000000000000000000000000000000000815250836101fa565b505050565b60008060010154905090565b61029282826040516024016102109291906104e8565b6040516020818303038152906040527fc3b55635000000000000000000000000000000000000000000000000000000007bffffffffffffffffffffffffffffffffffffffffffffffffffffffff19166020820180517bffffffffffffffffffffffffffffffffffffffffffffffffffffffff8381831617835250505050610296565b5050565b60008151905060006a636f6e736f6c652e6c6f679050602083016000808483855afa5050505050565b600080fd5b6000819050919050565b6102d7816102c4565b81146102e257600080fd5b50565b6000813590506102f4816102ce565b92915050565b6000602082840312156103105761030f6102bf565b5b600061031e848285016102e5565b91505092915050565b610330816102c4565b82525050565b600060208201905061034b6000830184610327565b92915050565b7f4e487b7100000000000000000000000000000000000000000000000000000000600052601160045260246000fd5b600061038b826102c4565b9150610396836102c4565b9250827fffffffffffffffffffffffffffffffffffffffffffffffffffffffffffffffff038211156103cb576103ca610351565b5b828201905092915050565b600081519050919050565b600081905092915050565b60005b8381101561040a5780820151818401526020810190506103ef565b83811115610419576000848401525b50505050565b600061042a826103d6565b61043481856103e1565b93506104448185602086016103ec565b80840191505092915050565b600061045c828461041f565b915081905092915050565b600081519050919050565b600082825260208201905092915050565b6000601f19601f8301169050919050565b600061049f82610467565b6104a98185610472565b93506104b98185602086016103ec565b6104c281610483565b840191505092915050565b60008115159050919050565b6104e2816104cd565b82525050565b600060408201905081810360008301526105028185610494565b905061051160208301846104d9565b939250505056fea26469706673582212204d01c7b936156876df20b8e33ebd0ad0749c3f42cd40bec87348f6d521ea3e2864736f6c63430008090033",
  "linkReferences": {},
  "deployedLinkReferences": {}
}