{
  "_format": "hh-sol-artifact-1",
  "contractName": "B",
  "sourceName": "contracts/A.sol",
  "abi": [
    {
      "inputs": [
        {
          "internalType": "address",
          "name": "_A",
          "type": "address"
        }
      ],
      "stateMutability": "nonpayable",
      "type": "constructor"
    },
    {
      "inputs": [],
      "name": "getB",
      "outputs": [
        {
          "internalType": "uint256",
          "name": "",
          "type": "uint256"
        }
      ],
      "stateMutability": "view",
      "type": "function"
    },
    {
      "inputs": [
        {
          "internalType": "uint256",
          "name": "_b",
          "type": "uint256"
        }
      ],
      "name": "setB",
      "outputs": [],
      "stateMutability": "nonpayable",
      "type": "function"
    }
  ],
  "bytecode": "0x608060405234801561001057600080fd5b5060405161065d38038061065d833981810160405281019061003291906100dc565b80600160006101000a81548173ffffffffffffffffffffffffffffffffffffffff021916908373ffffffffffffffffffffffffffffffffffffffff16021790555050610109565b600080fd5b600073ffffffffffffffffffffffffffffffffffffffff82169050919050565b60006100a98261007e565b9050919050565b6100b98161009e565b81146100c457600080fd5b50565b6000815190506100d6816100b0565b92915050565b6000602082840312156100f2576100f1610079565b5b6000610100848285016100c7565b91505092915050565b610545806101186000396000f3fe608060405234801561001057600080fd5b50600436106100365760003560e01c806309cdcf9b1461003b578063a1c5191514610057575b600080fd5b610055600480360381019061005091906102f1565b610075565b005b61005f6101e8565b60405161006c919061032d565b60405180910390f35b80600081905550600080600160009054906101000a900473ffffffffffffffffffffffffffffffffffffffff1673ffffffffffffffffffffffffffffffffffffffff166002846100c59190610377565b6040516024016100d5919061032d565b6040516020818303038152906040527fee919d50000000000000000000000000000000000000000000000000000000007bffffffffffffffffffffffffffffffffffffffffffffffffffffffff19166020820180517bffffffffffffffffffffffffffffffffffffffffffffffffffffffff838183161783525050505060405161015f9190610447565b600060405180830381855af49150503d806000811461019a576040519150601f19603f3d011682016040523d82523d6000602084013e61019f565b606091505b50915091506101e36040518060400160405280600781526020017f7375636365737300000000000000000000000000000000000000000000000000815250836101f1565b505050565b60008054905090565b61028982826040516024016102079291906104df565b6040516020818303038152906040527fc3b55635000000000000000000000000000000000000000000000000000000007bffffffffffffffffffffffffffffffffffffffffffffffffffffffff19166020820180517bffffffffffffffffffffffffffffffffffffffffffffffffffffffff838183161783525050505061028d565b5050565b60008151905060006a636f6e736f6c652e6c6f679050602083016000808483855afa5050505050565b600080fd5b6000819050919050565b6102ce816102bb565b81146102d957600080fd5b50565b6000813590506102eb816102c5565b92915050565b600060208284031215610307576103066102b6565b5b6000610315848285016102dc565b91505092915050565b610327816102bb565b82525050565b6000602082019050610342600083018461031e565b92915050565b7f4e487b7100000000000000000000000000000000000000000000000000000000600052601160045260246000fd5b6000610382826102bb565b915061038d836102bb565b9250827fffffffffffffffffffffffffffffffffffffffffffffffffffffffffffffffff038211156103c2576103c1610348565b5b828201905092915050565b600081519050919050565b600081905092915050565b60005b838110156104015780820151818401526020810190506103e6565b83811115610410576000848401525b50505050565b6000610421826103cd565b61042b81856103d8565b935061043b8185602086016103e3565b80840191505092915050565b60006104538284610416565b915081905092915050565b600081519050919050565b600082825260208201905092915050565b6000601f19601f8301169050919050565b60006104968261045e565b6104a08185610469565b93506104b08185602086016103e3565b6104b98161047a565b840191505092915050565b60008115159050919050565b6104d9816104c4565b82525050565b600060408201905081810360008301526104f9818561048b565b905061050860208301846104d0565b939250505056fea2646970667358221220c7f9913d9c879430a55daeb8cb5ace6780c72418c5ccb2b4de945776e2cd50a064736f6c63430008090033",
  "linkReferences": {},
  "deployedLinkReferences": {}
}